:020000040800F2
:10000000C8520020F9020008C12300085720000848
:100010005D2300085F080008BD2B000800000000F9
:10002000000000000000000000000000390200088D
:100030001D09000800000000950200084F24000878
:100040001303000813030008130300081303000838
:100050001303000813030008130300081303000828
:100060001303000813030008130300081303000818
:100070001303000813030008130300081303000808
:1000800013030008130300081303000813030008F8
:1000900013030008130300081303000813030008E8
:1000A00013030008130300081303000813030008D8
:1000B00013030008130300081303000813030008C8
:1000C00013030008130300081303000813030008B8
:1000D00013030008B12B00081303000813030008E2
:1000E0001303000813030008130300081303000898
:1000F00013030008F5240008130300081303000885
:100100001303000813030008130300081303000877
:100110001303000813030008130300081303000867
:100120001303000813030008610800081303000804
:100130001303000800000000000000001303000883
:100140001303000813030008130300081303000837
:1001500013030008130300086D08000813030008C8
:100160001303000813030008130300081303000817
:100170001303000813030008000000000000000043
:10018000130300081303000800F002F800F045F81C
:100190000AA090E8000C82448344AAF10107DA45E2
:1001A00001D100F03AF8AFF2090EBAE80F0013F0EF
:1001B000010F18BFFB1A43F0010318476C440000FD
:1001C0008C440000103A24BF78C878C1FAD852078E
:1001D00024BF30C830C144BF04680C6070470000C1
:1001E0000023002400250026103A28BF78C1FBD840
:1001F000520728BF30C148BF0B6070471FB504F0DD
:1002000093F900F0A5FA04000020002104F076F92B
:10021000401C60601FBD10B510BD00F0ABFA114668
:10022000FFF7ECFF02F0F4FC00F0C9FA03B4FFF7AB
:10023000F2FF03BC00F00CFB2C4B19680868B0E817
:10024000F04F80F30988BFF36F8F4FF0000080F309
:10025000118870470000000008480068006880F3BB
:1002600008884FF0000080F3148862B661B6BFF3CF
:100270004F8FBFF36F8F00DF00BF00BF08ED00E0BE
:10028000DFF80C00016841F470010160704700BFA5
:1002900088ED00E0EFF30980BFF36F8F134B1A680E
:1002A0001EF0100F08BF20ED108A20E9F04F1060FB
:1002B00009B44FF0500080F31188BFF34F8FBFF3A4
:1002C0006F8F03F0EDFB4FF0000080F3118809BC45
:1002D00019680868B0E8F04F1EF0100F08BFB0ECC6
:1002E000108A80F30988BFF36F8F704728000020C1
:1002F000EFF3058070470000094880470948004730
:10030000FEE7FEE7FEE7FEE7FEE7FEE7FEE7FEE7C5
:10031000FEE7FEE704480549054A064B7047000022
:10032000E524000889010008C84C0020C8520020BC
:10033000C84E0020C84E002053EA020C00F069802D
:100340002DE9F04B4FF00006002B1FBFB3FA83F5E9
:1003500003FA05F424FA05F65E4012BF1643B2FA1A
:1003600082F502FA05F4C5F120051EBF22FA05FC4C
:1003700044EA0C04203556EA044C4FEA144418BFF2
:10038000641C4FF000084FF00009904271EB030C21
:1003900039D3002919BFB1FA81F701FA07F6B0FA8B
:1003A00080F700FA07F6C7F120071EBF20FA07FC06
:1003B00046EA0C062037B6FBF4FCA7EB0507103F16
:1003C00007F01F0BCBF120060CFA0BFB2CFA06F6FC
:1003D00044BFB3460026202FA4BF5E464FF0000B5B
:1003E0005BEA060C08BF4FF0010B19EB0B09ABFBE6
:1003F000027C48EB0608C01B06FB02CC0BFB03CCBF
:1004000071EB0C01C1E70B46024641464846BDE888
:10041000F08B13B54FF000004FF00001AFF30080F8
:10042000BDE81C4070472DE9F04791460F468046D5
:100430000446002614F8015B2DB100F0F7F80068BF
:10044000405DC007F6D12B2D02D02D2D18D0641E93
:100450004A463946204600F0F5F827B13968A142EE
:1004600001D1C7F800804FF0020471050BD540425E
:10047000002803DD00F0E2F80460A007BDE8F08783
:1004800046F48066E4E70028F8DA00F0D7F8046064
:100490006FF00040F2E730B505460B462A4613F8E8
:1004A000014B12F8010B08B1A042F8D01CB1002892
:1004B00002D06D1CF1E7284630BD10B5431C02E0A8
:1004C00010F8011B71B18107FAD14FF0013202C857
:1004D0008C1A8C4314EAC211F9D0C01A0A0603D050
:1004E000C01E10BDC01A10BD0A0401D0801E10BD70
:1004F0000902FCD0401E10BD032A40F2308010F0EB
:10050000030C00F0158011F8013BBCF1020F6244AE
:1005100098BF11F801CB00F8013B38BF11F8013B3F
:10052000A2F1040298BF00F801CB38BF00F8013BEC
:1005300011F0030300F0D580083AC0F0088051F8AC
:10054000043B083A51F804CBA0E80810F5E7121D67
:100550005CBF51F8043B40F8043BAFF30080D20786
:1005600024BF11F8013B11F801CB48BF11F8012B52
:1005700024BF00F8013B00F801CB48BF00F8012B75
:10058000704702F0FF0343EA032242EA024200F00E
:1005900002B84FF000020429C0F0128010F0030CE2
:1005A00000F01B80CCF1040CBCF1020F18BF00F866
:1005B000012BA8BF20F8022BA1EB0C0100F00DB815
:1005C0005FEAC17C24BF00F8012B00F8012B48BF73
:1005D00000F8012B70474FF0000200B51346944617
:1005E0009646203922BFA0E80C50A0E80C50B1F18B
:1005F0002001BFF4F7AF090728BFA0E80C5048BF9F
:100600000CC05DF804EB890028BF40F8042B08BF3C
:10061000704748BF20F8022B11F0804F18BF00F838
:10062000012B7047704770477047000010B500F00D
:100630008FF8001D10BD00BFC53E00000048704788
:10064000644C00202DE9F05F824615468B4600275A
:100650000AF10104B9460078302801D09DB113E0B9
:1006600014F8010B0127782803D0582801D045B190
:100670000AE00DB1102D07D1002714F8010B102549
:1006800002E0082500E00A250026B0460EE005FB42
:10069000080005FB06F101271FFA80F801EB104660
:1006A000B6F5803F00D3B94614F8010B294600F097
:1006B00053F80028EBDABBF1000F05D00FB1641E30
:1006C00000E05446CBF80040B9F1000F06D0FFF728
:1006D000B5FF02210160C81EBDE8F09F48EA064050
:1006E000FAE710B5203AC0F00B80B1E81850203A74
:1006F000A0E81850B1E81850A0E81850BFF4F5AFC2
:100700005FEA027C24BFB1E81850A0E8185044BF4B
:1007100018C918C0BDE810405FEA827C24BF51F8B8
:10072000043B40F8043B08BF7047D20728BF31F8AC
:10073000023B48BF11F8012B28BF20F8023B48BFFD
:1007400000F8012B7047000000487047644C0020FF
:1007500000487047844C00203A2800D2303820F0FE
:100760002002412A01D3A2F13700884201D34FF081
:10077000FF3070477546FFF7E7FFAE460500694654
:10078000534620F00700854618B020B5FFF7C2FD9C
:10079000BDE820404FF000064FF000074FF0000882
:1007A0004FF0000B21F00701AC46ACE8C009ACE803
:1007B000C009ACE8C009ACE8C0098D46704710B567
:1007C0000446AFF300802046BDE81040FFF72EBD81
:1007D0004FF0013C50F8042B51F8043B9A4221D1D0
:1007E000A2EB0C03934313EACC1317D150F8042B5C
:1007F00051F8043B9A4215D1A2EB0C03934313EA40
:10080000CC130BD150F8042B51F8043B9A4209D178
:10081000A2EB0C03934313EACC13DBD04FF00000A0
:10082000704700BFD01A01BAB1FA81F101F0180186
:1008300022FA01F0CB40C1F12001DBB2C0B2C01AF4
:100840002CFA01F3D11A914311EAC311E6D1704792
:1008500001491820ABBEFEE7260002007047FEE704
:10086000014800F0B9B8000088020020014800F0FB
:10087000B3B80000E802002001681823CAB2103A99
:10088000B2FBF3F2054B6FF30901032A9B5CC365CE
:1008900000D9091D8165084670470000A045000881
:1008A00010B5014600208B698A6A4FF0C07453B1BD
:1008B000B3F5005F15D072B1012A0CD0022A0AD01C
:1008C000032A09D104E01AB1012A06D0022A03D171
:1008D000C96AC90100D5012010BDC96AA142FAD078
:1008E00010BD002AF7D0012AF2D0022AF3D0032A41
:1008F000F3D010BD30B50468256825F48025256047
:10090000046863608368402B036803D099600068C3
:10091000C26030BD9A600068C16030BD704772B679
:10092000FEE72DE9F0410446876D00F0C5FA064662
:1009300094F835000025022806D08020606584F8F0
:1009400034500120BDE8F0812068016821F01601D3
:1009500001602068416921F080014161206C08B983
:10096000A06C20B12068016821F0080101602068B6
:10097000016821F0010101600CE000F09DFA801B8C
:10098000052807D920206065032084F8350084F805
:100990003450D7E720680068C007EED194F85C10A7
:1009A0003F208840B860012084F8350084F8345036
:1009B0000020C7E790F83510022903D08021416557
:1009C00001207047052180F835100068016821F08A
:1009D00001010160002070472DE9F84304464FF003
:1009E0000009CDF8009063484FF41651A56D0068DA
:1009F000B0FBF1F72E6894F85C10082000FA01F1C2
:100A000031420FD021680A6852070BD50A6822F0DC
:100A100004020A6094F85C108840A860606D40F0A1
:100A20000100606594F85C104FF0010808FA01F0CD
:100A3000304208D021684969090604D5A860606D74
:100A400040F00200606594F85C1004208840304259
:100A500008D021680968890704D5A860606D40F056
:100A60000400606594F85C1010208840304218D073
:100A700021680968090714D5A8602068016849033E
:100A800004D50068000308D5A16C07E00168C9051A
:100A900003D4016821F008010160216C09B12046EE
:100AA000884794F85C1020208840304231D021687B
:100AB0000968C9062DD5A86094F835000528206876
:100AC000016806D0490347D5006800031DD4616C56
:100AD0001CE021F0160101602068416921F08001CD
:100AE0004161206C08B9A06C20B12068016821F038
:100AF0000801016094F85C103F208840A86084F8E9
:100B0000358084F83490216D1FE0E16B09B12046F7
:100B10008847606D00282BD0606DC00714D0052079
:100B200084F835002068016821F001010160009817
:100B3000401C0090B84203D820680068C007F6D176
:100B400084F8358084F83490E16C002910D001B02D
:100B50002046BDE8F04308470168C905D5D40168BF
:100B600021F01001016084F8358084F83490CCE7DE
:100B7000BDE8F883240000202DE9F041044600F090
:100B80009BF906465CB1022084F83500002584F804
:100B900034502068016821F0010101600DE001205E
:100BA000BDE8F08100F088F9801B052805D92020D8
:100BB0006065032084F83500F2E720680068C0070C
:100BC000F0D12268116820480140D4E9010318439C
:100BD000D4E903363343184363691843A3691843C0
:100BE000E3691843236A18430843616A042903D15F
:100BF000D4E90B1319430843106020684069666A02
:100C000020F0070130460E43012704280CD1A06ACA
:100C10000643E06A40B12046FFF742FE20B1402083
:100C2000606584F83570BAE7206846612046FFF7B2
:100C300023FE94F85C203F2191408160656584F833
:100C400035700020ACE700003F8010F02DE9F04146
:100C50000446866D90F83400002501280DD001204F
:100C600084F8340094F835700020012F07D084F800
:100C7000340002252846BDE8F0810220FBE7022768
:100C800084F8357060652046FFF734FE94F85C10F8
:100C90003F208840B0602068016841F01601016083
:100CA000206C20B12068016841F0080101602068D3
:100CB000016841F001010160DCE700002DE9F84F17
:100CC000DFF8BCA10022012503264FF00F090AF12D
:100CD000040BAAF1040E00BF0B6805FA02F42340CE
:100CE000A34270D10F7907F00307012F01D0022F23
:100CF00016D187684FEA420806FA08FC27EA0C0773
:100D0000D1F80CC00CFA08FC4CEA070CC0F808C07B
:100D10004768A7430C79C4F3001494403C434460F3
:100D20000C79E443A4070AD0C4684FEA420C06FADF
:100D30000CF7BC438F6807FA0CF72743C7600C79A0
:100D400004F00304022C12D1D40800EB840CDCF86C
:100D500020405707FF0E09FA07F824EA0804D1F8E3
:100D6000108008FA07F848EA0408CCF820800468E4
:100D70004FEA420C06FA0CF7BC430F7907F0030761
:100D800007FA0CF7274307604C6814F4403F70D013
:100D90003C4C276847F480472760246822F003070B
:100DA00004F480440094384C07EB040CDCF8084849
:100DB00097074FEA177809FA08F7BC43334FB84250
:100DC00002D1002724E054E0314FB84201D101277D
:100DD0001EE0304FB84201D1022719E02E4FB84231
:100DE00001D1032714E02D4FB84201D104270FE0B1
:100DF0002B4FB84201D105270AE02A4FB84201D152
:100E0000062705E0284FB84201D1072700E0082750
:100E100007FA08F72743CCF80878DAF80040574675
:100E2000D1F804C09C435FEACC2C00D51C433C6045
:100E3000DBF800405F46D1F804C09C435FEA8C2C8D
:100E400000D51C433C60DEF800407746D1F804C072
:100E50009C435FEA8C3C00D51C433C60084F083F34
:100E60003C68D1F804C09C435FEACC3C00D51C43ED
:100E70003C60521C102AFFF42FAFBDE8F88F000031
:100E8000083C01404438024000300140000002406C
:100E90000004024000080240000C02400010024022
:100EA0000014024000180240001C02400AB1816197
:100EB00070470904FBE700000148806870470000A4
:100EC0001800002002488168027811448160704750
:100ED000180000200B4810B5016841F40071016052
:100EE000016841F480610160016841F48071016032
:100EF000032000F09FF80F2000F006F800F050F8F3
:100F0000002010BD003C024030B505461F4887B0A8
:100F10000024016841F480710160006806A900F4B2
:100F20008070009001A800F031F90498A8B100F099
:100F30004DF940001649174AB0FBF1F11648491E19
:100F4000026040F2E732C0E90324C0E90114846181
:100F500000F08EFB040003D015E000F037F9E9E75C
:100F60000D4800F0D3FB04000DD12D2000F034F823
:100F7000102D07D2002229462D2000F03BF807480B
:100F8000056000E0012407B0204630BD4038024033
:100F900040420F0000200040480300201C000020B9
:100FA0000C4882B0016841F480410160006800F49F
:100FB000804000900748001F016841F080510160A7
:100FC0000068002200F0805000900F21901E02B0B7
:100FD00000F010B844380240002809DB00F01F027E
:100FE000012191404009800000F1E020C0F800118B
:100FF00070470000F0B40E4B1B680C46C3F302238D
:10100000C3F10705042D00D90425191D072901D2B4
:10101000002300E0DB1E012606FA05F1491E2140EF
:1010200099409E40761E16403143F0BC01F0C7BD8A
:101030000CED00E0064900F0070208684FF6FF03D8
:10104000184040EA0220034A10430860704700003D
:101050000CED00E00000FA052DE9F0470E46050012
:1010600065D0DFF81481D8F80000F7B200F007006F
:10107000B04207D288F80070D8F8000000F00700EE
:10108000B04254D128683D4C810712D5400703D5A2
:10109000206840F4E05020602878000703D52068DD
:1010A00040F4604020602068A96820F0F000084308
:1010B00020602878C0072DD0304968680839012899
:1010C00012D0022813D0032811D0096889070029FB
:1010D0002DDA216821F0030101432160FFF7ECFEC6
:1010E000814641F2883A0EE009688903EFE7096812
:1010F0008901ECE7FFF7E0FEA0EB0901514502D9B9
:101100000320BDE8F0872068696800F00C00B0EBB0
:10111000810FEFD1D8F80010404601F00701B1422D
:1011200007D90770006800F00700B04201D0012025
:10113000E7E72878400705D52068E96820F4E05003
:10114000084320602878000706D52068296920F424
:10115000604040EAC100206000F058F82168084A69
:10116000C1F30311515CC840064908600648006895
:10117000FFF7CAFE0020C4E7003C024008380240E6
:10118000A8450008240000201C0000200F22026057
:101190000C4A136803F003034360136803F0F00381
:1011A0008360136803F4E053C36012684FF4E053A4
:1011B00003EAD20202610448006800F007000860F8
:1011C0007047000008380240003C024004480549CE
:1011D00000680968044AC1F38221515CC840704725
:1011E0002400002008380240B8450008044805499A
:1011F00000680968044AC1F34231515CC840704735
:101200002400002008380240B8450008154810B5F1
:10121000006810F00C02144813D01449042A0FD0AF
:10122000082A0ED10F4C241F2268236802F03F02C7
:101230005B0207D52068C0F38810A0FB010106E01F
:10124000084610BD2168C1F38811A1FB00010023ED
:10125000FFF772F82168C1F30141491C4900B0FB56
:10126000F1F010BD083802400024F40040787D0100
:101270002DE9F84F04006ED02078DFF84C93C007BA
:10128000A9F104054AD009F104000168C1F3810104
:10129000012908D00068C0F3810002280AD1D9F8DA
:1012A0000000400206D52868800337D56068002812
:1012B000E1D033E06068B0F5803F10D0B0F5A02FEA
:1012C000286810D020F480302860286820F480201E
:1012D00028606068A8B1FFF7EFFD06460DE02868BA
:1012E00040F48030F4E740F480202860F7E700BF46
:1012F000FFF7E2FD801B642873D828688003F7D5C8
:101300000CE0FFF7D9FD064605E000BFFFF7D4FD6E
:10131000801B6428F0D828688003F7D42078DFF891
:10132000AC8280074FF0000A3ED5A748001D016837
:1013300011F00C0F08D00068C0F3810002280BD117
:10134000D9F80000400207D42868800716D5E06865
:10135000012800D112E033E1E068B8B10120C8F8FB
:101360000000FFF7A9FD064605E000BFFFF7A4FD5A
:10137000801B0228C0D828688007F7D52868216913
:1013800020F0F80040EAC10028600DE0C8F800A095
:10139000FFF792FD064604E0FFF78EFD801B022852
:1013A0001FD828688007F7D42078000722D5864FF9
:1013B00087486169703771B101210160FFF77CFDD9
:1013C000064604E0FFF778FD801B022809D838683C
:1013D0008007F7D50EE0C0F800A0FFF76DFD0646C8
:1013E00005E082E0FFF768FD801B02287DD83868A1
:1013F0008007F7D42078400768D5DFF8CCB1002704
:101400000BF13C0BDBF80000C0000BD4DBF8001044
:1014100041F08051CBF80010DBF80000012700F00C
:10142000805000906B4E3068C00510D4306840F496
:1014300080703060FFF740FD009005E0FFF73CFD55
:101440000099401A022850D83068C005F6D55E4E83
:10145000A0686C3601280FD00528306810D020F025
:1014600001003060306820F004003060A068B8B13E
:10147000FFF722FD00900FE0306840F00100F4E734
:1014800040F004003060F7E7FFF716FD0099411ABD
:1014900041F28830814266D830688007F4D50EE08A
:1014A000FFF70AFD009007E0FFF706FD0099411ADB
:1014B00041F28830814256D830688007F4D42FB189
:1014C000DBF8001021F08051CBF80010A069C8B300
:1014D0003D49091D0968C1F3810102294AD002284A
:1014E000504607D0C8F8600000E03CE0FFF7E4FC9D
:1014F00004463BE04746C8F86000FFF7DDFC0646BF
:1015000005E000BFFFF7D8FC801B02282BD8286815
:101510008001F7D4D4E907010843A16A2E4A49089B
:1015200002EB0141626A41EA8211084394F82C10EF
:1015300040EA0161C9F8001001203866FFF7BCFCE1
:10154000044606E03EE000BFFFF7B6FC001B0228A1
:1015500009D828688001F7D534E000BFFFF7ACFC5C
:10156000001B022802D90320BDE8F88F28688001FB
:10157000F4D427E00128F7D0D9F80000E26900F49C
:10158000800191421CD1226A00F03F01914217D1A3
:1015900047F6C071626A0140B1EB821F10D1A26AA6
:1015A0004FF0FF3300F4403103EB5202B1EB024F36
:1015B00006D194F82C1000F07060B0EB016F01D0F0
:1015C0000120D1E70020CFE7043802400000474265
:1015D000800E4742007000400000FFFF70477047D8
:1015E00070B590F83C20012A32D0012480F83C40AC
:1015F000022280F83D2003685A689D6822F0700638
:101600000A6832435A60134B02689A4214D0B2F10E
:10161000804F11D0104B9A420ED0104B9A420BD0F3
:101620000F4B9A4208D00F4B9A4205D00E4B9A426C
:1016300002D00E4B9A4204D1496825F08003194329
:10164000916080F83D40002180F83C10084670BD54
:10165000022070BD0000014000040040000800406E
:10166000000C004000040140004001400018004010
:1016700010B5040003D094F83D0010B107E001203C
:1016800010BD002084F83C00204600F01FF8022026
:1016900084F83D00211D206800F032FF012084F80D
:1016A000460084F83E0084F83F0084F8400084F847
:1016B000410084F8420084F8430084F8440084F830
:1016C000450084F83D00002010BD000008B50C4A1C
:1016D00001680C48914207D1016841F002010160A4
:1016E000006800F0020009E0074A914207D1016852
:1016F00041F008010160006800F00800009008BD9A
:101700000004004040380240000C004090F83D10BA
:10171000012901D001207047022180F83D100168A5
:10172000CA6842F00102CA6000681149884214D0B8
:10173000B0F1804F11D00F4988420ED00E49884237
:101740000BD00E49884208D00D49884205D00D497A
:10175000884202D00C49884204D1816801F0070117
:10176000062903D0016841F00101016000207047A3
:10177000000001400004004000080040000C004050
:1017800000040140004001400018004070B50446CC
:1017900090F83C000025012817D0012684F83C6011
:1017A000022084F83D002068826822F0770222F44B
:1017B0007F4282600868502838D00DDC20284FD046
:1017C00005DC90B3102811D14AE0022070BD30280A
:1017D00046D040280AD13BE060282FD070280DD099
:1017E000B0F5805F03D0B0F5005F12D0012584F81A
:1017F0003D60002084F83C00284670BDCB68D1E9EC
:101800000121206800F0F1FE2068816841F0770135
:1018100009E0CB68D1E90121206800F0E6FE2068EC
:10182000816841F480418160E1E719E0CA68496854
:10183000206800F0AFFF5021206806E0CA684968C0
:10184000206800F0B8FF6021206800F0D8FECEE7E5
:10185000CA684968206800F09DFF40212068F4E7CD
:10186000226801461046F0E770472DE9F041044632
:101870000068C66805694FF00007A90713D5B107CE
:1018800011D5F91E01610120207720688069800749
:10189000204602D0FFF7E8FF04E000F0CFF8204632
:1018A00000F061F92777680716D5700714D521680D
:1018B0006FF004000861022020772068806910F42E
:1018C000407F204602D0FFF7CFFF04E000F0B6F8DB
:1018D000204600F048F92777280715D5300713D59B
:1018E00021686FF008000861042020772068C06933
:1018F0008007204602D0FFF7B7FF04E000F09EF813
:10190000204600F030F92777E80616D5F00614D502
:1019100021686FF010000861082020772068C069F6
:1019200010F4407F204602D0FFF79EFF04E000F055
:1019300085F8204600F017F92777E80708D0F00768
:1019400006D021686FF001000861204600F070F9B0
:10195000280608D5300606D521686FF0800008619A
:101960002046FFF73BFE680608D5700606D52168BD
:101970006FF040000861204600F064F9A8060AD51F
:10198000B00608D521686FF0200008612046BDE848
:10199000F041FFF724BEBDE8F081000030B587B00C
:1019A000044614216846FEF716FE1F4B22680024E9
:1019B0001E4902251E489A421FD10A6842F00102C0
:1019C0000A600A6802F0010205920A6842F0020207
:1019D0000A60096801F002010591C0210091CDE97A
:1019E00001546946CDE90345FFF768F903200090EB
:1019F000CDE9015469460F480FE00F4B9A4210D1D0
:101A00000A6842F001020A60096801F001010591CB
:101A10000F210091CDE901546946CDE90345FFF757
:101A20004DF907B030BD00000004004030380240DE
:101A30000000024000040240000C0040704770B5F6
:101A4000044690F83C0000260D4601280FD00120E6
:101A500084F83C006AB1042A1DD0082A2FD00C2A31
:101A60003FD00126002084F83C00304670BD0220A3
:101A700070BD206800F0CCFD2068816941F008014C
:101A800081612068816921F0040181612068816998
:101A90002A69114311E0206800F0EAFD206881699D
:101AA00041F4006181612068816921F48061816174
:101AB000206881692A6941EA02218161D2E72068B0
:101AC00000F00CFE2068C16941F00801C161206886
:101AD000C16921F00401C1612068C1692A6911430B
:101AE00011E0206800F02EFE2068C16941F4006119
:101AF000C1612068C16921F48061C1612068C16948
:101B00002A6941EA0221C161ACE710B5040003D0A3
:101B100094F83D0010B107E0012010BD002084F8CA
:101B20003C00204600F01EF8022084F83D00211DF4
:101B3000206800F0E5FC012084F8460084F83E00AF
:101B400084F83F0084F8400084F8410084F84200A3
:101B500084F8430084F8440084F8450084F83D008C
:101B6000002010BD7047704710B50446022249B1ED
:101B700004290ED0082913D094F84100012816D06A
:101B8000012010BD94F83E000128F9D184F83E20D0
:101B90000FE094F83F000128F2D184F83F2008E0DC
:101BA00094F840000128EBD184F8402001E084F84B
:101BB00041200122206800F00BFD16492068164ADA
:101BC000884201D0904203D1436C43F40043436404
:101BD0002068884213D0B0F1804F10D00F4988425E
:101BE0000DD00F4988420AD00E49884207D0904252
:101BF00005D00D49884202D00C49884204D1816841
:101C000001F00701062903D0016841F001010160DC
:101C1000002010BD0000014000040140000400400D
:101C200000080040000C0040004001400018004047
:101C300000680349884201D1FFF744B970470000AA
:101C4000002000407047704770470000F8B50168F9
:101C500004460868CA684B6910F00F0F4FF0000582
:101C600059D003F0010602F49077374365D0C107DD
:101C700005D0D10503D5616C41F0010161644107D4
:101C800005D5D90703D0616C41F002016164810779
:101C900005D5D90703D0616C41F0040161640107E7
:101CA00007D502F02001314303D0616C41F00801F7
:101CB0006164616C00293AD0800604D5900602D593
:101CC000204600F03DFE20684069616CC0F3801042
:101CD000090700D460B3204600F0FDFD206840698C
:101CE000400621D52068143050E8001F21F0400143
:101CF00040E80012002AF5D1E06BA8B172490165F5
:101D0000E06BFEF757FE002811D0E06B016D01B0CB
:101D1000BDE8F040084783060FD593060DD5204651
:101D2000BDE8F84000F00CBE2046FFF78DFFF8BD7F
:101D30002046FFF789FF6564F8BD266B2023012E3E
:101D40007ED1C6067CD5D6067AD50868486800904C
:101D500048694FF0020640064DD5E26B10684068B6
:101D60004FF480770004000C3AD0A18D814237D91E
:101D7000E085D069B8422DD020680C3050E8001FB3
:101D800021F4807140E80012002AF5D12068143057
:101D900050E8001F21F0010140E80012002AF5D1AF
:101DA0002068143050E8001F21F0400140E8001284
:101DB000002AF5D184F84230256320680C3050E8C1
:101DC000001F21F0100140E80012002AF5D1E06B5D
:101DD000FEF7A7FD6663A08DE18D401A81B206E093
:101DE000A18D8142A8D1D069B842A5D166632046B1
:101DF000FFF729FFF8BDA08DE18D401A81B2E08D7B
:101E00000028F7D00029F5D020680C3050E8002FCA
:101E100022F4907240E80027002FF5D1206814309A
:101E200050E8002F22F0010240E80027002FF5D1F2
:101E300084F84230256320680C3050E8002F00E021
:101E400006E022F0100240E80023002BF3D1CDE79A
:101E500005062BD5150629D594F841002128C9D1AE
:101E6000A068B0F5805F01D12069B0B1206A411C43
:101E70002162216800784860E08C401E0004000C5C
:101E8000E084B7D12068C16821F08001C16020687A
:101E9000C16841F04001C160F8BD206A0088C0F30C
:101EA00008004860206A801C2062E5E74006F3D500
:101EB0005006F1D5CA68204622F04002CA6084F874
:101EC000413000F0C7F8F8BDDB27000870B504000A
:101ED00004D094F84100002510B106E0012070BD47
:101EE00084F84050204600F023F8242084F8410074
:101EF0002068C16821F40051C160204600F082FDD5
:101F00002068016921F4904101612068416921F054
:101F10002A0141612068C16841F40051C1606564D3
:101F2000202084F8410084F842006563002070BDE1
:101F30002DE9F04387B0064614216846FEF74BFBB7
:101F40003149306888425BD130480024016841F053
:101F500010010160006800F0100005902B48143853
:101F6000016841F0010101600068694600F001006C
:101F700005904FF4C06000900220CDE901040320D9
:101F80000390072004902248FEF798FE224D214836
:101F90004FF000672860C5E901744FF48068C5E917
:101FA00003484FF480796C61C5E906492C622846E4
:101FB0006C62FEF7E1FD08B1FEF7B1FCF563AE63BC
:101FC000154D144860357830E5E802074020A5E853
:101FD0001101114845F814496030C5E906492C62E1
:101FE0006C62FEF7C9FD08B1FEF799FCB5630022EB
:101FF00005212520AE63FEF7FDFF2520FEF7ECFF4F
:1020000007B0BDE8F08300000010014044380240F2
:1020100000000240406402408802002090F84230F4
:10202000202B01D00220704721B11AB10023036395
:1020300000F06EBD01207047704700000068034942
:10204000884202D102490120087070470010014007
:10205000160000207047FEE70D4808B5016841F4FE
:10206000800101600068002200F4800000900521DA
:102070003A20FEF7BFFF3A20FEF7AEFF002205210F
:102080004620FEF7B7FFBDE808404620FEF7A4BF94
:102090003038024010B50B4A00210B4800F016FE04
:1020A0000A4C084A002120602432094800F00EFE44
:1020B000044A606048320021064800F007FEA06034
:1020C00010BD000034450008212400080000002055
:1020D0003D2C000885360008F0B587B0142168460D
:1020E000FEF779FA21480024016841F001010160FE
:1020F000016801F001010591016841F004010160EE
:10210000016801F004010591016841F002010160DC
:102110000068174E00F00200059000222021304692
:10212000FEF7C4FE134F002230213846FEF7BEFEF4
:102130001020CDE900040124694630460294FEF7E0
:10214000BDFD2020CDE90004032569463046CDE9D8
:102150000245FEF7B3FD3020CDE90004694638465C
:10216000CDE90245FEF7AAFD07B0F0BD30380240C8
:10217000000002400008024010B58EB00024079411
:10218000089409940A940B941C2168460C94FEF759
:1021900022FA2A482849C0E9001441F61F41C0E943
:1021A000024104618461FFF763FA08B1FEF7B7FBEF
:1021B0004FF48050079007A92048FFF7E7FA08B1CD
:1021C000FEF7ADFB1D48FFF7A0FC08B1FEF7A7FB2B
:1021D0003020CDE90B040BA91848FFF701FA08B12C
:1021E000FEF79DFB6020CDE90004029400226946C1
:1021F00012480494FFF723FC08B1FEF790FB042279
:1022000069460E48FFF71BFC08B1FEF788FB082261
:1022100069460A48FFF713FC08B1FEF780FB0C2261
:1022200069460648FFF70BFC08B1FEF778FB034848
:10223000FFF7B4FB0EB010BD00040040B00000205A
:1022400010B58EB000240794089409940A940B9456
:102250001C2168460C94FEF7BEF92A482849C0E9BB
:10226000001441F61F41C0E9024104618461FFF797
:10227000FFF908B1FEF753FB4FF48050079007A910
:102280002048FFF783FA08B1FEF749FB1D48FFF726
:102290003CFC08B1FEF743FB3020CDE90B040BA951
:1022A0001848FFF79DF908B1FEF739FB6020CDE92A
:1022B000000402940022694612480494FFF7BFFB11
:1022C00008B1FEF72CFB042269460E48FFF7B7FB66
:1022D00008B1FEF724FB082269460A48FFF7AFFB66
:1022E00008B1FEF71CFB0C2269460648FFF7A7FB66
:1022F00008B1FEF714FB0348FFF750FB0EB010BD0A
:10230000000C0040F8000020124810B51049016090
:102310004FF4E1314160002181600C22C160C0E9CD
:1023200004128161C161FFF7D1FD08B1FEF7F7FA30
:10233000084848300068016841F008010160BDE8C4
:1023400010404FF4807204490248FFF767BE000056
:10235000001001404002002040010020FEE7000084
:1023600070B50446144800F05FF8144800F05CF8BB
:1023700040F2DC510A46104800F023F8200E00EB32
:102380008000440000EE104AB8EE400A00F028FC3D
:10239000BDEEC00A10EE105A00EE104AB8EE400A28
:1023A00000F01EFC2A46BDEEC00ABDE8704010EEEB
:1023B000101A024800F005B8B0000020F800002014
:1023C000FEE710B54FF4E1535C42994201DD194636
:1023D00002E0A14200DA21469A4201DD1A4602E0FB
:1023E000A24200DA22460468002905DD636304681E
:1023F000C1F5E151A16304E001F5E15161630168B8
:102400008B630168002A05DDCB630068C2F5E151EA
:10241000016410BD02F5E152CA630068036410BD97
:10242000012000F017FCFBE710B504460021FFF780
:102430009BFB04212046FFF797FB08212046FFF76E
:1024400093FB2046BDE810400C21FFF78DBB10B573
:102450004FF0E020006901F09BFE012803D0BDE8A9
:10246000104001F0C9BB10BD10B592B030216846D4
:10247000FEF7B1F814210CA8FEF7ADF817480024B8
:10248000016841F080510160006800F080501190B7
:102490001348016841F4804101600068069400F42B
:1024A00080401190022000900120039010200490A1
:1024B0006846FEF7DDFE08B172B6FEE70F20CDE9F3
:1024C0000C040E940F9400210CA81094FEF7C4FD88
:1024D000002801D072B6FEE712B010BD40380240AD
:1024E000007000400248016841F4700101607047CB
:1024F00088ED00E00148FFF7B8B90000480300206C
:10250000F0B50268274B284D284E294F294C4FF033
:10251000804C984209D0604507D0A84205D0B0420F
:1025200003D0B84201D0A04204D122F0700E4A6814
:1025300042EA0E0298421BD0604519D0A84217D03B
:10254000B04215D0B84213D0A04211D01A4DA842C3
:102550000ED01A4DA8420BD0194DA84208D0194DE3
:10256000A84205D0184DA84202D0184DA84203D168
:1025700022F44075CA682A434D6922F080022A433A
:102580008D68C5620D688562984201D0A04201D174
:1025900009690163016841F00401016001214161A1
:1025A0000260F0BD0000014000040040000800404F
:1025B000000C004000040140004001400044014084
:1025C0000048014000180040001C0040002000406E
:1025D00010B501F01F030121046A99408C43046285
:1025E000016A9A401143016210BD10B5846842EA45
:1025F000032224F47F440A432243826010BD826890
:1026000022F070020A4342F0070181607047000027
:10261000F0B5036A026A22F001020262426884692C
:10262000124E24F073050C682C4323F002058B68CE
:102630002B430D4DA84201D0B04205D123F008072D
:10264000CB683B4323F00403A84201D0B04205D13C
:102650004D6922F4407215438A692A4342608461BD
:10266000496841630362F0BD00000140000401407D
:10267000F0B5026A036A23F01003036243688469B9
:102680000D6824F4E64444EA05248D6822F0200213
:1026900042EA05120F4D104EA84201D0B04206D1B9
:1026A000CF6822F0800242EA071222F04002A842DC
:1026B00001D0B04207D14D6923F4406343EA85035A
:1026C0008D6943EA850343608461496881630262DE
:1026D000F0BD00000000014000040140F0B5026AB6
:1026E000036A23F4807303624368C46922F40072AE
:1026F00024F073050C68124E2C438D6842EA0522C3
:102700000E4DA84201D0B04206D1CF6822F400623B
:1027100042EA072222F48062A84201D0B04207D1E7
:102720004D6923F4405343EA05138D6943EA0513C9
:102730004360C4614968C1630262F0BD00000140AA
:102740000004014030B5046A026A22F48052026239
:102750004268C3690D6823F4E64343EA05238D68A4
:1027600024F4005444EA0534084DA84202D0084D30
:10277000A84204D14D6922F4804242EA85124260A7
:10278000C36149680164046230BD0000000001407B
:102790000004014010B5036A046A24F001040462D5
:1027A000846924F0F00444EA021423F00A020A4384
:1027B0008461026210BD10B5036A046A24F010043B
:1027C0000462846923F0A00324F4704444EA0232D2
:1027D00043EA01118261016210BD10B5806B0021D6
:1027E000C185FFF731FA10BD70B5846B2068406970
:1027F00094F84110C0F3C0100025212904D118B16C
:10280000E584204600F08EF82068406994F8421074
:10281000C0F38010222904D118B1E585204600F0CC
:102820005AF8606C40F0100060642046FFF70CFA24
:1028300070BD10B50146806B096809684FF0000251
:10284000C9052ED4C28501680C3151E8003F23F43C
:10285000807341E80034002CF5D10168143151E84F
:10286000003F23F0010341E80034002CF5D101685A
:10287000143151E8003F23F0400341E80034002CBC
:10288000F5D1202180F84210016B012909D101689E
:102890000C3151E8003F23F0100341E80034002CD4
:1028A000F5D14263016B012902D0FFF7C5FB10BDD2
:1028B000818DFFF7C8F910BD10B5806B0121416310
:1028C000016B012902D0FFF7B9FB10BD818D4908CA
:1028D000FFF7B9F910BD01680C3151E8002F22F45F
:1028E000907241E80023002BF5D10168143151E8C2
:1028F000002F22F0010241E80023002BF5D1016BEB
:10290000012909D101680C3151E8002F22F0100291
:1029100041E80023002BF5D1202180F8421000214E
:102920000163704701680C3151E8002F22F0C002AA
:1029300041E80023002BF5D1202180F84110704799
:1029400008B590F84210222901D0022008BD826803
:102950004FF480539A4201D1016921B1816A9A42B0
:102960001BD04AB10AE00268816A5268C2F30802C9
:102970000A80816A891C08E0026972B102685268A3
:1029800002F07F020A70816A491C8162C18D491E72
:102990000904090CC18503D01BE002685268F1E705
:1029A0000168CA6822F02002CA600168CA6822F47D
:1029B0008072CA6001684A6922F001024A612021DE
:1029C00080F8421000214163026B012A03D0FFF717
:1029D00033FB002008BD016301680C3151E8002F72
:1029E00022F0100241E80023002BF5D101680A68AB
:1029F000D20602D50A6849680091818DFFF723F954
:102A0000E7E7000070B5044600680169E26821F458
:102A10004051114301612169A068E269084361697D
:102A2000114308432168CA6849F20C639A43024380
:102A3000CA6020684169A26921F440711143416173
:102A400031492068884202D03049884202D1FEF7DD
:102A5000CDFB01E0FEF7BAFBE269002319216425F2
:102A60003226B2F5004F626828D0A0FB0101930F17
:102A70009200FDF761FC0146B0FBF5F06FF0180223
:102A8000504301EB800006EB0010B0FBF5F000F0C6
:102A9000F002B1FBF5F002EB0012B1FBF5F06FF0C4
:102AA0001803584301EB800006EB0010B0FBF5F073
:102AB00000F00F0021681044886070BDA0FB010188
:102AC00092185B41FDF738FC0146B0FBF5F00201BE
:102AD000B1FBF5F06FF01803584301EB800006EBF3
:102AE000C000B0FBF5F000F0F80002EB4002B1FBD3
:102AF000F5F0584301EB800006EBC000B0FBF5F0A9
:102B000000F00700D6E7000000100140001401406B
:102B100038B5816204468285002013466064222213
:102B200084F84220E56B1F4AEA63E56B1E4A2A647B
:102B3000E56B1E4AEA64E26B10650A462168E06BA9
:102B4000091DFEF783F830B110206064202084F85E
:102B50004200012038BD206801684068009020696B
:102B600048B120680C3050E8001F41F4807140E803
:102B70000012002AF5D12068143050E8001F41F0FF
:102B8000010140E80012002AF5D12068143050E815
:102B9000001F41F0400140E80012002AF5D100205A
:102BA00038BD000033280008B9280008E9270008CC
:102BB0000148FFF74BB8000040020020FEE709077C
:102BC000090E002804DB00F1E02080F800147047B3
:102BD00000F00F0000F1E02080F8141D70470000A5
:102BE00008489FED091A80ED000AD0ED010A60EE59
:102BF000810A9FED061A40EE010AC0ED010AB0EE0F
:102C0000600A7047A80000206666663FCDCCCC3DC8
:102C1000FEF760F9FFF728FCFFF75EFAFFF71CFAF2
:102C2000FFF7AAFAFFF70CFBFFF76EFB00F020F8A6
:102C3000FFF730FA00F02EF8FEE70000044C00BF6A
:102C4000D4E90301FFF78CFB012000F003F8F7E75C
:102C50000000002010B5EFF3058111B16FF00504FD
:102C600003E0002408B100F067FE204610BD00001C
:102C7000EFF3058010B16FF005007047044801685C
:102C800011B14FF0FF307047012101600020704703
:102C90007800002010B5EFF3058010B16FF005004B
:102CA00010BD08480168012902D04FF0FF3010BD67
:102CB000054A002182F8141D0221016000F0A4FEE3
:102CC000002010BD780000200BE000E02DE9FF415E
:102CD0004FEA01034FF00005EFF30581039549BB6F
:102CE00040B38027182100244AB3166806B1344641
:102CF00096691EB13146761E382E02D21679F60735
:102D000003D0002004B0BDE8F081566906B1B708D1
:102D1000D2F808C0BCF1000F0DD0D5685C2D18D3D7
:102D200012693AB136B18DE806103A46214601F0F3
:102D300004FA03900DE0D6685EB912694AB903AA95
:102D4000CDE90012BAB2214601F0CAF9012800D03B
:102D500003950398D6E700002DE9F043214DC9B053
:102D600040AE3CCD86E83C00CA1C44920A1D459208
:102D70004A1D891DCDE946214FF48079014604277B
:102D80004A466846FDF7B8FB4FF000088DF8FF8013
:102D90004FEA0804684656F82410FDF77CFB05004E
:102DA00015D056F82400FDF788FB2844CDF8208183
:102DB00001788DF8201140788DF821011022002132
:102DC00048A8FDF730FB44A951F824100870641C92
:102DD000BC42DFDB49466846FDF7FDFB49B00020F9
:102DE000BDE8F083C04500082DE9F041134C0F46C3
:102DF0000546E6682068001D00F06AFC681C07D1E3
:102E000037B12168BDE8F0410D48091D00F0B0BCA4
:102E100020683544B5424560216805D2A06BBDE805
:102E2000F041091D00F08CBC606B091D00F088FCAE
:102E3000A06A854200D2A562BDE8F081280000208A
:102E4000800800202DE9F041054600F09DFC2D4C46
:102E5000A068401CA06020682B4F10B1606930B39F
:102E60002BE02560A068012827D1002606EB86000C
:102E700007EB800000F056FC761C382EF6D3234872
:102E800000F050FC2148143000F04CFC1F48283062
:102E900000F048FC1D483C3000F044FC1B4850301A
:102EA00000F040FC194860631430A06305E020681E
:102EB000E96AC06A884200D82560606A401C606286
:102EC0006864E86A2169884200D9206100EB8000CB
:102ED00007EB8000291D00F04BFC00F075FC6069D9
:102EE00000280CD02068E96AC06A884207D20849E5
:102EF0004FF080500860BFF34F8FBFF36F8FBDE876
:102F0000F081000028000020D003002030080020BD
:102F100004ED00E038B500F037FC104C2068C8B96B
:102F20000F4800F0FFFB0E48143000F0FBFB0C488C
:102F3000E060143020610A4B0020F03B009003F168
:102F4000500210210A2000F06DFE206010B105A192
:102F500000F0BCFCBDE8384000F036BC6400002046
:102F600084090020546D72510000000030B4026CDE
:102F70000B46002A0BD0C1681144C1608468A1428D
:102F800001D30168C16030BC1846FDF7B5BA30BC4A
:102F900070472DE9F041856B174604460026026C08
:102FA00082B1C7B1E068FDF7A7FAE168206C091AA1
:102FB000E1602268914202D2A168081AE060022F03
:102FC00016D017E02068A8B9A06801F059F90646A4
:102FD0000020A0600EE06068FDF78EFA216C60684A
:102FE00008446060A168884204D32068606001E002
:102FF00005B16D1E6D1CA5633046BDE8F08110B5AE
:10300000044690F8590058B101280CD002280FD07E
:10301000502080F31188BFF34F8FBFF36F8FFEE70F
:10302000206B00F0E5FB2046BDE8104000F0E0BB5F
:1030300010BD000010484FF47051420706D0C01D6B
:103040000D4920F00700411AC1F570510B4A0023C9
:103050000144C2E900030839183A21F00701116060
:103060004B600B600B1AC0E9001393604FF00040F7
:1030700053605061704700006410002094000020ED
:10308000144E154CA6F29C474FF08058DFF84C9038
:1030900012E000BF00F078FBF068C568281D00F062
:1030A00017FBA068401EA0606068401E606000F0D2
:1030B0008BFB2846FFF7A3FF60680028EAD1386839
:1030C0000128F9D9C9F80080BFF34F8FBFF36F8F84
:1030D000F2E700006C0800202800002004ED00E06A
:1030E00070B51D46049C51B1C4F80020C4E90F011D
:1030F0000121204600F0CAFD84F84C5070BD2460C8
:10310000F4E700002DE9F05F8846DDE90B941546F1
:10311000834691009A460A9EA522206BFDF731FA5C
:103120006FF00301206B01EB8501084420F00707D5
:10313000780707D0502080F31188BFF34F8FBFF37B
:103140006F8FFEE70025B8F1000F0FD05FF0000091
:10315000221818F8001082F8341018F8001011B175
:10316000401C1028F4D384F8435001E084F8345014
:10317000382E00D33726E662C4E91365201D00F01F
:10318000DCFA04F1180000F0D8FA2461C6F1380026
:103190006462A061656584F85850524659463846C5
:1031A00000F05AFA2060B9F1000F01D0C9F80040D0
:1031B000BDE8F09F30B5114900E011460A6882422F
:1031C000FBD34B685C18844203D1406818444860C4
:1031D000084643681C18944209D1084C183C2468DE
:1031E000A24209D052681A4442600A68126802601A
:1031F000814200D0086030BD0460F9E794000020EF
:1032000070B5002441600B4D0061914206D8D11A7F
:103210008269914206D2011D286907E09A4203D2D1
:10322000994201D3012403E0011DE86800F088FA07
:10323000204670BD6400002010B5044600F0A4FADA
:10324000A06B28B15FF0000400F0BEFA204610BD6C
:103250000124F9E730B589B03C4D6EE004980028B0
:1032600006DADDE90601059A90470498002864DB38
:10327000069C606910B1201D00F02AFA03A800F036
:10328000D7F8024604980A2857D2DFE800F005056F
:10329000052D334A05052D3394F8280040F0010030
:1032A00084F828000599A069059B01442046FFF792
:1032B000A7FF68B3216A2046884794F82800400792
:1032C0003BD5002000900598A169002342181946BB
:1032D000204601F0DFF8D8B9502080F31188BFF301
:1032E0004F8FBFF36F8FFEE714F8280F20F0010017
:1032F000207022E094F8280040F0010084F82800B3
:103300000598A06128B1811813462046FFF778FF81
:1033100013E0502080F31188BFF34F8FBFF36F8FFE
:10332000FEE794F82800810703D4204600F060FAF5
:1033300003E020F0010084F82800002204A9286896
:1033400000F0F8FD002889D109B030BD64000020EC
:103350002DE9FC410F46054600F09AFB01A800F05C
:1033600067F80446019818B101F002F8BDE8FC8145
:10337000254EAFB130690068D0B30027291B3A460B
:10338000306800F0B7FA00F0F3FF0028EED11F49D3
:103390004FF080500860BFF34F8FBFF36F8FE5E7AA
:1033A000A542EBD800F0E4FFF0682746C068C46887
:1033B000201D00F08DF994F82800410719D5A06967
:1033C0002B4641193A462046FFF71AFFA8B10020C4
:1033D0000346014600902A46204601F05BF860B99A
:1033E000502080F31188BFF34F8FBFF36F8FFEE73C
:1033F00007E020F0010084F82800216A2046884771
:10340000B4E70127BAE700006400002004ED00E003
:103410000648416B096829B1416BC968C9684968A8
:10342000816270474FF0FF31FAE70000280000206A
:1034300070B5054600F0BAFE064E0446B0688442F8
:1034400003D200F009F8012000E0002028602046A7
:10345000B46070BD64000020F8B5194D20E0C0686C
:10346000C4680668201D00F033F9216A20468847A9
:1034700094F82800400713D5A0693044B04206D91B
:1034800024616060211DE86800F05AF908E000201E
:103490000346014600903246204600F0FBFF38B15B
:1034A000E86801680029DAD12969C5E90310F8BD87
:1034B000502080F31188BFF34F8FBFF36F8FFEE76B
:1034C0006400002008484068401C4FF0500080F322
:1034D000118804D0BFF34F8FBFF36F8FFEE7BFF3A8
:1034E0004F8FBFF36F8FFEE79C000020074CE06812
:1034F000016841B1C0680021D0F80000FFF728FF43
:10350000FFF7A8FEF3E701210020F7E764000020A1
:103510002DE9F041044600F037F994F9455004F1E3
:10352000240609E0606A48B1304600F0E9FE08B1BF
:1035300000F030FA6D1E6DB2002DF3DC4FF0FF3657
:1035400084F8456000F040F900F01EF994F9445009
:1035500004F1100709E0206948B1384600F0D0FEB8
:1035600008B100F017FA6D1E6DB2002DF3DC84F87F
:103570004460BDE8F04100F027B900002DE9F041BA
:103580000546002700F084FA324E306808B9FFF78C
:1035900051FD706905424ED1C5B3083568070ED09C
:1035A00005F00700C0F108000544680707D0502067
:1035B00080F31188BFF34F8FBFF36F8FFEE72DB3FA
:1035C0007068854237D82348183001460C6801E0FE
:1035D00020460C466168A94202D221680029F7D131
:1035E00031688C4227D0076821680160606808371D
:1035F000411B10290FD96019420708D0502080F3D1
:103600001188BFF34F8FBFF36F8FFEE713E0416068
:103610006560FFF7CFFD61687068401A7060B2683E
:10362000904200D2B060706901430020C4E90001FB
:10363000F068401CF06000F09BFE780707D0502037
:1036400080F31188BFF34F8FBFF36F8FFEE73846CB
:10365000BDE8F0817C00002010B5031F4FF080749E
:103660001C601B1F21F001011960191F044B0B6026
:1036700014390A60091F6FF0020244380A6010BD55
:10368000C53400080D4E0E4F0E4D00244FF48078C7
:103690000D48FEF7D3FC307858B128880B493C54CC
:1036A0000748FFF759FB41460548FCF772FF2C809D
:1036B00034700120FFF7CEFAEAE700001600002080
:1036C0004001002014000020400200200C000020D7
:1036D000D0E9013201699A60D0E901235A604A6851
:1036E000824201D182684A60002202610868401E5D
:1036F0000860086870470000034B036003F15C003A
:103700000860802010607047AC090020044B036003
:1037100003F15C0008604FF4807010607047000097
:10372000080C002000F108014FF0FF32C0E901123F
:10373000C160016100210160704700210161704793
:1037400030B50B685A1C02D000F1080202E0026991
:1037500004E02246546825689D42FAD953684B60BC
:1037600099608A60516008610168491C016030BD40
:1037700042684A6093688B60936859609160086101
:103780000168491C01607047502080F31188BFF325
:103790004F8FBFF36F8F0A494868401C486001286B
:1037A0000CD10848006810F0FF0F07D0502080F3BC
:1037B0001188BFF34F8FBFF36F8FFEE77047000094
:1037C0009C00002004ED00E00849486828B1401E34
:1037D000486001D180F311887047502080F3118830
:1037E000BFF34F8FBFF36F8FFEE700009C000020F8
:1037F00070B500282AD0164DA0F1080460686969E8
:10380000084207D1502080F31188BFF34F8FBFF3D8
:103810006F8FFEE722683AB1502080F31188BFF322
:103820004F8FBFF36F8FFEE78843606000F030F981
:1038300060686968084468602046FFF7BBFC286937
:10384000401C2861BDE8704000F092BD70BD0000D2
:103850007C0000204FF0E0200021016181610549DA
:103860004FF47A720968B1FBF2F1491E41610721F8
:10387000016170472400002010B5FCF739FD1149A3
:1038800010280ED300F1E02090F8F0030A7890425F
:1038900007D2502080F31188BFF34F8FBFF36F8F93
:1038A000FEE709480068896800F4E060884207D9AB
:1038B000502080F31188BFF34F8FBFF36F8FFEE767
:1038C00010BD00009C0000200CED00E010B5084B7E
:1038D000002200BF53F832401CB1521C082AF9D311
:1038E00010BD43F8321003EBC201486010BD000068
:1038F0009003002070B515460E460446FFF744FFBE
:1039000094F944100020491C01D184F8440094F932
:103910004510491C01D184F84500FFF755FFA06B05
:1039200028B92A46314604F1240000F051F8204617
:10393000BDE87040FFF7ECBD10B5020014D00F4891
:10394000006B38B1502080F31188BFF34F8FBFF365
:103950006F8FFEE700F09CF800211046FFF744FA55
:1039600000F006FD002807D105494FF0805008609F
:10397000BFF34F8FBFF36F8F10BD000028000020F2
:1039800004ED00E002490A6A0260C96841607047BC
:103990002800002001490120C8617047280000204C
:1039A00010B50C4650B1094909681831FFF7C8FE37
:1039B0002046BDE810400121FFF716BA502080F3E1
:1039C0001188BFF34F8FBFF36F8FFEE728000020F1
:1039D00070B514460D4668B10A4909681831FFF7F9
:1039E000C7FE0CB14FF0FF3521462846BDE87040B8
:1039F000FFF7FAB9502080F31188BFF34F8FBFF360
:103A00006F8FFEE72800002030B587B000240394B4
:103A100005AA04A903A80494FFF76EFEDDE90301DB
:103A20000094CDE90110002315A11748059A00F074
:103A300084FB164D0028E8621FD000F0FBFC012833
:103A400009D0401C19D1502080F31188BFF34F8F4B
:103A5000BFF36F8FFEE7502080F31188BFF34F8FC5
:103A6000BFF36F8F4FF0FF30A86201206861EC60F8
:103A700007B0BDE8304000F045B807B030BD0000E9
:103A800049444C4500000000813000082800002017
:103A90000248016B491C01637047000028000020A8
:103AA000164810B5016B11B10121C16110BD002193
:103AB000C1610169124A01E0B9B1491E01EB8103FC
:103AC00052F82330002BF7D001EB810302EB830285
:103AD00002F1080453685B685360A34201D15B683C
:103AE0005360DA680260016110BD502080F31188D4
:103AF000BFF34F8FBFF36F8FFEE700002800002059
:103B0000D00300201CB537480168374A914207D1DD
:103B1000502080F31188BFF34F8FBFF36F8FFEE704
:103B200000683149491E884207D1502080F311882E
:103B3000BFF34F8FBFF36F8FFEE72C4908780190DA
:103B4000FF20087008788DF800009DF800009DF8AF
:103B5000002000F0F000904207D0502080F3118840
:103B6000BFF34F8FBFF36F8FFEE79DF80000204C2F
:103B700000F0500020700720A06005E09DF80020B4
:103B800052008DF80020401E9DF800201206F5D44A
:103B9000A060032807D0502080F31188BFF34F8F17
:103BA000BFF36F8FFEE74FF44070A060019808707C
:103BB0000C482030016841F470010160016841F057
:103BC00070410160FFF746FE00206060FCF758FB83
:103BD0000848016841F040410160FCF73DFB0020CE
:103BE0001CBD000000ED00E071C20F4100E400E0E8
:103BF0009C00002034EF00E010B5502080F31188C5
:103C0000BFF34F8FBFF36F8F00F0D6FA18B104499E
:103C10004FF080500860002080F3118810BD000034
:103C200004ED00E038B5049D18B153B1CAB181B1BB
:103C300020E0502080F31188BFF34F8FBFF36F8FC8
:103C4000FEE7502080F31188BFF34F8FBFF36F8FD3
:103C5000FEE7502080F31188BFF34F8FBFF36F8FC3
:103C6000FEE739B1502080F31188BFF34F8FBFF3C7
:103C70006F8FFEE750241C46012384F846302B4604
:103C80000094FFF72DFA204638BD000070B50D46B0
:103C9000040025D0FFF778FDD4E90F20216802FB4E
:103CA0000011A1600021A163216861600A46D4E986
:103CB0000F01401E00FB0121E16021464FF0FF3063
:103CC00001F8440F487004F110008DB1FFF72AFD90
:103CD00004F12400FFF726FDFFF776FD012070BDFB
:103CE000502080F31188BFF34F8FBFF36F8FFEE733
:103CF00021690029F0D000F003FB0028ECD0044932
:103D00004FF080500860BFF34F8FBFF36F8FE3E732
:103D100004ED00E02DE9FF4782B01D468A464FF0D2
:103D20000008040003D0BAF1000F08D011E05020C1
:103D300080F31188BFF34F8FBFF36F8FFEE7206CC6
:103D400038B1502080F31188BFF34F8FBFF36F8FCE
:103D5000FEE7022D0AD1E06B012807D0502080F346
:103D60001188BFF34F8FBFF36F8FFEE700F010FA9B
:103D70003F4F4FF000094FF0805648B9049838B1D2
:103D8000502080F31188BFF34F8FBFF36F8FFEE792
:103D9000FFF7FAFCA06BE16B884207D3022D05D038
:103DA0000498D0B1B8F1000F1AD01EE02A4651464F
:103DB0002046FFF7EEF8616A19B104F1240000F023
:103DC0009FFA20B13E60BFF34F8FBFF36F8FFFF7B5
:103DD000FBFC012006B0BDE8F087FFF7F5FC22E010
:103DE0006846FFF7CFFD4FF00108FFF7EDFCFFF746
:103DF0004FFEFFF7C9FC94F94400401C01D184F840
:103E0000449094F94500401C01D184F84590FFF797
:103E1000DBFC04A9684600F029F930B12046FFF721
:103E200077FB00F0A5FA0020D4E7FFF7ADFCA06B0C
:103E3000E16B884213D1FFF7C7FC04F1100004992D
:103E4000FFF7AEFD2046FFF763FB00F091FA002874
:103E50009ED13E60BFF34F8FBFF36F8F98E7FFF7A0
:103E6000B3FC2046FFF754FB00F082FA90E7000015
:103E700004ED00E02DE9F0471F4690468946040016
:103E800003D0B9F1000F08D011E0502080F3118861
:103E9000BFF34F8FBFF36F8FFEE7206C38B1502018
:103EA00080F31188BFF34F8FBFF36F8FFEE7022FB0
:103EB0000AD1E06B012807D0502080F31188BFF3AE
:103EC0004F8FBFF36F8FFEE7FFF7D6FC5020EFF365
:103ED000118680F31188BFF34F8FBFF36F8FA06BF4
:103EE000E16B884206D3022F04D0002086F31188AC
:103EF000BDE8F08794F94550A06B3A464946204604
:103F0000FFF747F8681C04D06D1C84F84550012069
:103F1000ECE7606A0028FAD004F1240000F0F0F920
:103F20000028F4D0B8F1000FF1D00121C8F800103A
:103F3000EDE700002DE9F747002683B08A4604002C
:103F400003D0BAF1000F08D011E0502080F311889F
:103F5000BFF34F8FBFF36F8FFEE7206C38B1502057
:103F600080F31188BFF34F8FBFF36F8FFEE700F030
:103F70000FF9DFF8F4804FF000094FF0805748B98F
:103F8000059838B1502080F31188BFF34F8FBFF3ED
:103F90006F8FFEE7FFF7F8FBA56BC5B151462046D2
:103FA000FEF7E4FF6D1EA563206950B104F1100017
:103FB00000F0A6F928B1C8F80070BFF34F8FBFF327
:103FC0006F8FFFF701FC012006B0BDE8F087059870
:103FD00008B11EB106E0FFF7F7FB27E06846FFF7E0
:103FE000D1FC0126FFF7F0FBFFF752FDFFF7CCFBFA
:103FF00094F94400401C01D184F8449094F94500A0
:10400000401C01D184F84590FFF7DEFB05A9684606
:1040100000F02CF8002820460AD0FFF779FA00F0CB
:10402000A7F92046FFF708F90028B3D00020CBE716
:10403000FFF702F990B104F124000599FFF7B0FCF5
:104040002046FFF765FA00F093F90028A2D1C8F8DE
:104050000070BFF34F8FBFF36F8F9BE72046FFF7D2
:1040600057FA00F085F995E704ED00E02DE9F041FD
:104070000C46050011D0C4B1FFF786FB174BDA6878
:104080006E682068911B471C17D02F681B6A9F42DF
:1040900019D0964217D8012410E0502080F31188DF
:1040A000BFF34F8FBFF36F8FFEE7502080F311886F
:1040B000BFF34F8FBFF36F8FFEE70024FFF784FB42
:1040C0002046BDE8F081884205D9401A2060284684
:1040D000FFF758FCF1E700202060DCE72800002013
:1040E0002DE9FF5F8346DDE90E87994616468A462D
:1040F0009000FFF743FA05001CD05C20FFF73EFA62
:10410000040014D00020256384F85900CDE9024052
:10411000CDE900874B46324651465846FEF7F2FF3E
:104120002046FEF78FFE012004B0BDE8F09F284630
:10413000FFF75EFB4FF0FF30F6E7F0B585B0DDE945
:104140000B640A9DA6B1DCB15C27009726630226AA
:1041500084F85960002604AFCDE90246CDE9005746
:10416000FEF7D0FF2046FEF76DFE049805B0F0BDC7
:10417000502080F31188BFF34F8FBFF36F8FFEE79E
:10418000502080F31188BFF34F8FBFF36F8FFEE78E
:104190000548416919B1006B18B100207047012032
:1041A0007047022070470000280000200148C068C6
:1041B00070470000280000202DE9F0412E4C002718
:1041C000206B28B1A069401CA0613846BDE8F08191
:1041D000E668761CE66013D1606B006838B1502049
:1041E00080F31188BFF34F8FBFF36F8FFEE7606BD3
:1041F000A16B6163A063206A401C2062FFF708F98D
:10420000A06ADFF87880864209D3606B0068A0B1AD
:10421000606BC068C5686868864211D2A062206879
:10422000C06A00EB800158F82100012800D901275D
:10423000E0690028C9D00127C7E74FF0FF30EDE75C
:10424000281DFFF745FAA86A18B105F11800FFF715
:104250003FFAE86A2169884200D9206100EB8001B9
:1042600008EB8100291DFFF783FAE86A2168C96A13
:104270008842CAD30127C8E728000020D0030020C5
:1042800070B504004FF0000133D01B4D2868844204
:1042900007D0502080F31188BFF34F8FBFF36F8F8B
:1042A000FEE7206D38B1401E2065E36CE26A9A4259
:1042B0001FD040B11DE0502080F31188BFF34F8F15
:1042C000BFF36F8FFEE7201DFFF702FAE06CE0629C
:1042D000C0F13800A061E06A2969884200D92861EC
:1042E000064900EB800001EB8000211DFFF740FA3A
:1042F0000121084670BD000028000020D0030020E6
:1043000070B5C068C46854B104F118000646FFF7E0
:10431000DFF9144D286B50B13146134815E0502099
:1043200080F31188BFF34F8FBFF36F8FFEE7201D1F
:10433000FFF7CEF9E06A2969884200D928610B4964
:1043400000EB800001EB8000211DFFF711FAE06A0D
:104350002968C96A884202D90120E86170BD00203D
:1043600070BD00002800002058080020D003002065
:104370002DE9F0472C4D00242746286B38B1FFF774
:1043800003FA286B401E2863286B40B146E050209A
:1043900080F31188BFF34F8FBFF36F8FFEE7A968DB
:1043A000224E0120D1B3A6F5916980463068E0B174
:1043B000F068C46804F11800FFF78AF9201DFFF7C0
:1043C00087F9E06A2969884200D9286100EB8001F9
:1043D00009EB8100211DFFF7CBF9E06A2968C96A62
:1043E0008842E3D3C5F81C80E0E70CB1FFF710F872
:1043F000AC694CB14FEA0806FFF7DEFE00B1EE6192
:10440000641EF9D10020A861E86938B10849012784
:1044100038070860BFF34F8FBFF36F8FFFF7D4F9F2
:104420003846BDE8F087000028000020580800202A
:1044300004ED00E010B586B0FEF76CFD114C20686D
:10444000B8B100200390049005AA04A903A8FFF7BF
:104450005DF9DDE9032102208DE8070000230AA1B0
:104460000B48059AFFF769FE606010B106B00120A5
:1044700010BD502080F31188BFF34F8FBFF36F8FB3
:10448000FEE7000064000020546D72205376630044
:10449000ED3400082DE9FF411E46134602000A9D37
:1044A0004FF0000016D0144C2768002F0FD0CDE934
:1044B00000130292062917DAFFF76AFE02284FF06E
:1044C00000030FD0002269462068FFF723FC04B0E8
:1044D000BDE8F081502080F31188BFF34F8FBFF308
:1044E0006F8FFEE72A46EEE70023324669463846DC
:1044F000FFF7C0FCEBE700006400002010B50029C6
:104500000AD00878002807D005487844FCF760F9FD
:10451000002801D0002010BD0248784410BD0000E2
:104520003E010000360100004FF04070E1EE100A3D
:1045300070470000DC45000800000000000000009B
:104540000000000000000000000200001800000051
:104550000000000000000000D0450008000000003E
:104560000000000000000000000000000008000043
:10457000300000000000000000000000E8450008D6
:10458000000000000000000000000000000000002B
:1045900000040000310000000000000000000000E6
:1045A00000061016000610160000000000000000B3
:1045B00001020304060708090000000001020304C9
:1045C0001C4600080446000810460008F84500088C
:1045D0006D6F746F725F6D6F766500006465666104
:1045E000756C745461736B0072656D6F74655F6395
:1045F0006F6E74726F6C00004C4A4F595F55443AAD
:1046000000000000524A4F595F55443A0000000034
:104610004C4A4F595F4C523A00000000524A4F59E1
:104620005F4C523A0000000058470008000000208C
:10463000B0000000C401000808480008B0000020D5
:1046400018520000E00100081001000043000000C3
:10465000F8FFFFFF004040404040404040404141A3
:104660004141414040404040404040404040404047
:1046700040404040400502020202020202020202E1
:1046800002020202022020202020202020202002DE
:10469000020202020202909090909090101010106E
:1046A000101010101010101010101010101010100A
:1046B000020202020202888888888888080808089E
:1046C000080808080808080808080808080808086A
:1046D0000202020240000000000000000000000092
:1046E00000000000000000000000000000000000CA
:1046F00000000000000000000000000000000000BA
:1047000000000000000000000000000000000000A9
:104710000000000000000000000000000000000099
:104720000000000000000000000000000000000089
:104730000000000000000000000000000000000079
:104740000000000000000000000000000000000069
:104750000000000000000000000000000000000059
:104760000000000000000000000000000000000049
:104770000100000010000000000000000024F40010
:104780000000000000000000000000000000000029
:104790000000000000000000000000000000000019
:1047A0000000000000000000000000000000000009
:1047B00000000000000000000000000000000000F9
:1047C00000000000000000000000000000000000E9
:1047D00000000000000000000000000000000000D9
:1047E00000000000000000000000000000000000C9
:1047F0000000000000000000AAAAAAAA0000000011
:084800000000000000000000B0
:040000050800018965
:00000001FF
